{
  "contractName": "DoorEndPoint",
  "abi": [
    {
      "inputs": [
        {
          "internalType": "bytes32",
          "name": "_endpoint_id",
          "type": "bytes32"
        },
        {
          "internalType": "contract IEmployeeManagment",
          "name": "_managment",
          "type": "address"
        },
        {
          "internalType": "uint64",
          "name": "_validity_length",
          "type": "uint64"
        },
        {
          "internalType": "string",
          "name": "_publickey",
          "type": "string"
        }
      ],
      "stateMutability": "nonpayable",
      "type": "constructor"
    },
    {
      "anonymous": false,
      "inputs": [
        {
          "components": [
            {
              "internalType": "uint256",
              "name": "timestamp",
              "type": "uint256"
            },
            {
              "internalType": "bytes32",
              "name": "endpoint_id",
              "type": "bytes32"
            },
            {
              "internalType": "bytes32",
              "name": "employee_id",
              "type": "bytes32"
            },
            {
              "internalType": "uint64",
              "name": "validity_length",
              "type": "uint64"
            },
            {
              "internalType": "string",
              "name": "data",
              "type": "string"
            }
          ],
          "indexed": false,
          "internalType": "struct Ticket",
          "name": "ticket",
          "type": "tuple"
        }
      ],
      "name": "TicketIssued",
      "type": "event"
    },
    {
      "anonymous": false,
      "inputs": [
        {
          "components": [
            {
              "internalType": "uint256",
              "name": "timestamp",
              "type": "uint256"
            },
            {
              "internalType": "bytes32",
              "name": "endpoint_id",
              "type": "bytes32"
            },
            {
              "internalType": "bytes32",
              "name": "employee_id",
              "type": "bytes32"
            },
            {
              "internalType": "uint64",
              "name": "validity_length",
              "type": "uint64"
            },
            {
              "internalType": "string",
              "name": "data",
              "type": "string"
            }
          ],
          "indexed": false,
          "internalType": "struct Ticket",
          "name": "ticket",
          "type": "tuple"
        }
      ],
      "name": "TicketRejected",
      "type": "event"
    },
    {
      "inputs": [],
      "name": "endpoint_id",
      "outputs": [
        {
          "internalType": "bytes32",
          "name": "",
          "type": "bytes32"
        }
      ],
      "stateMutability": "view",
      "type": "function",
      "constant": true
    },
    {
      "inputs": [],
      "name": "publicKey",
      "outputs": [
        {
          "internalType": "string",
          "name": "",
          "type": "string"
        }
      ],
      "stateMutability": "view",
      "type": "function",
      "constant": true
    },
    {
      "inputs": [
        {
          "components": [
            {
              "internalType": "uint256",
              "name": "timestamp",
              "type": "uint256"
            },
            {
              "internalType": "bytes32",
              "name": "endpoint_id",
              "type": "bytes32"
            },
            {
              "internalType": "bytes32",
              "name": "employee_id",
              "type": "bytes32"
            },
            {
              "internalType": "uint64",
              "name": "validity_length",
              "type": "uint64"
            },
            {
              "internalType": "string",
              "name": "data",
              "type": "string"
            }
          ],
          "internalType": "struct Ticket",
          "name": "ticket",
          "type": "tuple"
        }
      ],
      "name": "validate_ticket",
      "outputs": [
        {
          "internalType": "bool",
          "name": "",
          "type": "bool"
        }
      ],
      "stateMutability": "view",
      "type": "function",
      "constant": true
    },
    {
      "inputs": [],
      "name": "validity_length",
      "outputs": [
        {
          "internalType": "uint64",
          "name": "",
          "type": "uint64"
        }
      ],
      "stateMutability": "view",
      "type": "function",
      "constant": true
    },
    {
      "inputs": [
        {
          "internalType": "contract IEndPoint",
          "name": "endpoint",
          "type": "address"
        },
        {
          "internalType": "string",
          "name": "data",
          "type": "string"
        }
      ],
      "name": "CreateTicket",
      "outputs": [
        {
          "internalType": "bool",
          "name": "",
          "type": "bool"
        }
      ],
      "stateMutability": "nonpayable",
      "type": "function"
    }
  ],
  "bytecode": "0x60806040523480156200001157600080fd5b50604051620012da380380620012da833981810160405281019062000037919062000417565b818185806000819055505081600160006101000a81548167ffffffffffffffff021916908367ffffffffffffffff160217905550806002908051906020019062000083929190620000d1565b50505082600360006101000a81548173ffffffffffffffffffffffffffffffffffffffff021916908373ffffffffffffffffffffffffffffffffffffffff160217905550505050506200050c565b828054620000df90620004d7565b90600052602060002090601f0160209004810192826200010357600085556200014f565b82601f106200011e57805160ff19168380011785556200014f565b828001600101855582156200014f579182015b828111156200014e57825182559160200191906001019062000131565b5b5090506200015e919062000162565b5090565b5b808211156200017d57600081600090555060010162000163565b5090565b6000604051905090565b600080fd5b600080fd5b6000819050919050565b620001aa8162000195565b8114620001b657600080fd5b50565b600081519050620001ca816200019f565b92915050565b600073ffffffffffffffffffffffffffffffffffffffff82169050919050565b6000620001fd82620001d0565b9050919050565b60006200021182620001f0565b9050919050565b620002238162000204565b81146200022f57600080fd5b50565b600081519050620002438162000218565b92915050565b600067ffffffffffffffff82169050919050565b620002688162000249565b81146200027457600080fd5b50565b60008151905062000288816200025d565b92915050565b600080fd5b600080fd5b6000601f19601f8301169050919050565b7f4e487b7100000000000000000000000000000000000000000000000000000000600052604160045260246000fd5b620002e38262000298565b810181811067ffffffffffffffff82111715620003055762000304620002a9565b5b80604052505050565b60006200031a62000181565b9050620003288282620002d8565b919050565b600067ffffffffffffffff8211156200034b576200034a620002a9565b5b620003568262000298565b9050602081019050919050565b60005b838110156200038357808201518184015260208101905062000366565b8381111562000393576000848401525b50505050565b6000620003b0620003aa846200032d565b6200030e565b905082815260208101848484011115620003cf57620003ce62000293565b5b620003dc84828562000363565b509392505050565b600082601f830112620003fc57620003fb6200028e565b5b81516200040e84826020860162000399565b91505092915050565b600080600080608085870312156200043457620004336200018b565b5b60006200044487828801620001b9565b9450506020620004578782880162000232565b93505060406200046a8782880162000277565b925050606085015167ffffffffffffffff8111156200048e576200048d62000190565b5b6200049c87828801620003e4565b91505092959194509250565b7f4e487b7100000000000000000000000000000000000000000000000000000000600052602260045260246000fd5b60006002820490506001821680620004f057607f821691505b602082108103620005065762000505620004a8565b5b50919050565b610dbe806200051c6000396000f3fe608060405234801561001057600080fd5b50600436106100575760003560e01c806359d9bbca1461005c57806363ffab311461007a57806364a69dd214610098578063d8441d2a146100b6578063ef815f4a146100e6575b600080fd5b610064610116565b604051610071919061054b565b60405180910390f35b61008261011f565b60405161008f91906105ff565b60405180910390f35b6100a06101ad565b6040516100ad9190610644565b60405180910390f35b6100d060048036038101906100cb91906108e8565b6101c7565b6040516100dd919061094c565b60405180910390f35b61010060048036038101906100fb9190610a37565b6101f5565b60405161010d919061094c565b60405180910390f35b60008054905090565b6002805461012c90610ac6565b80601f016020809104026020016040519081016040528092919081815260200182805461015890610ac6565b80156101a55780601f1061017a576101008083540402835291602001916101a5565b820191906000526020600020905b81548152906001019060200180831161018857829003601f168201915b505050505081565b600160009054906101000a900467ffffffffffffffff1681565b60006101d1610116565b8260200151146101e457600090506101f0565b6101ed826104e8565b90505b919050565b60008373ffffffffffffffffffffffffffffffffffffffff163073ffffffffffffffffffffffffffffffffffffffff1614610265576040517f08c379a000000000000000000000000000000000000000000000000000000000815260040161025c90610b43565b60405180910390fd5b600080600360009054906101000a900473ffffffffffffffffffffffffffffffffffffffff1673ffffffffffffffffffffffffffffffffffffffff1663cb40496a336040518263ffffffff1660e01b81526004016102c39190610b72565b6040805180830381865afa1580156102df573d6000803e3d6000fd5b505050506040513d601f19601f820116820180604052508101906103039190610bf7565b9150915081610317576000925050506104e1565b60006040518060a001604052804281526020018873ffffffffffffffffffffffffffffffffffffffff166359d9bbca6040518163ffffffff1660e01b8152600401602060405180830381865afa158015610375573d6000803e3d6000fd5b505050506040513d601f19601f820116820180604052508101906103999190610c4c565b81526020018373ffffffffffffffffffffffffffffffffffffffff1663387dbcab6040518163ffffffff1660e01b8152600401602060405180830381865afa1580156103e9573d6000803e3d6000fd5b505050506040513d601f19601f8201168201806040525081019061040d9190610c4c565b8152602001600160009054906101000a900467ffffffffffffffff1667ffffffffffffffff16815260200187878080601f016020809104026020016040519081016040528093929190818152602001838380828437600081840152601f19601f820116905080830192505050505050508152509050600061048d826101c7565b9050806104a15760009450505050506104e1565b7ff561e7f3d6d407d93d9bb9c20dd7c5b8c6f88979b56d9660cd1038795b5cd59b826040516104d09190610d66565b60405180910390a160019450505050505b9392505050565b6000600160009054906101000a900467ffffffffffffffff1667ffffffffffffffff16826060015167ffffffffffffffff1614610528576000905061052d565b600190505b919050565b6000819050919050565b61054581610532565b82525050565b6000602082019050610560600083018461053c565b92915050565b600081519050919050565b600082825260208201905092915050565b60005b838110156105a0578082015181840152602081019050610585565b838111156105af576000848401525b50505050565b6000601f19601f8301169050919050565b60006105d182610566565b6105db8185610571565b93506105eb818560208601610582565b6105f4816105b5565b840191505092915050565b6000602082019050818103600083015261061981846105c6565b905092915050565b600067ffffffffffffffff82169050919050565b61063e81610621565b82525050565b60006020820190506106596000830184610635565b92915050565b6000604051905090565b600080fd5b600080fd5b600080fd5b7f4e487b7100000000000000000000000000000000000000000000000000000000600052604160045260246000fd5b6106b0826105b5565b810181811067ffffffffffffffff821117156106cf576106ce610678565b5b80604052505050565b60006106e261065f565b90506106ee82826106a7565b919050565b600080fd5b6000819050919050565b61070b816106f8565b811461071657600080fd5b50565b60008135905061072881610702565b92915050565b61073781610532565b811461074257600080fd5b50565b6000813590506107548161072e565b92915050565b61076381610621565b811461076e57600080fd5b50565b6000813590506107808161075a565b92915050565b600080fd5b600080fd5b600067ffffffffffffffff8211156107ab576107aa610678565b5b6107b4826105b5565b9050602081019050919050565b82818337600083830152505050565b60006107e36107de84610790565b6106d8565b9050828152602081018484840111156107ff576107fe61078b565b5b61080a8482856107c1565b509392505050565b600082601f83011261082757610826610786565b5b81356108378482602086016107d0565b91505092915050565b600060a0828403121561085657610855610673565b5b61086060a06106d8565b9050600061087084828501610719565b600083015250602061088484828501610745565b602083015250604061089884828501610745565b60408301525060606108ac84828501610771565b606083015250608082013567ffffffffffffffff8111156108d0576108cf6106f3565b5b6108dc84828501610812565b60808301525092915050565b6000602082840312156108fe576108fd610669565b5b600082013567ffffffffffffffff81111561091c5761091b61066e565b5b61092884828501610840565b91505092915050565b60008115159050919050565b61094681610931565b82525050565b6000602082019050610961600083018461093d565b92915050565b600073ffffffffffffffffffffffffffffffffffffffff82169050919050565b600061099282610967565b9050919050565b60006109a482610987565b9050919050565b6109b481610999565b81146109bf57600080fd5b50565b6000813590506109d1816109ab565b92915050565b600080fd5b600080fd5b60008083601f8401126109f7576109f6610786565b5b8235905067ffffffffffffffff811115610a1457610a136109d7565b5b602083019150836001820283011115610a3057610a2f6109dc565b5b9250929050565b600080600060408486031215610a5057610a4f610669565b5b6000610a5e868287016109c2565b935050602084013567ffffffffffffffff811115610a7f57610a7e61066e565b5b610a8b868287016109e1565b92509250509250925092565b7f4e487b7100000000000000000000000000000000000000000000000000000000600052602260045260246000fd5b60006002820490506001821680610ade57607f821691505b602082108103610af157610af0610a97565b5b50919050565b7f496e636f727265637420656e64706f696e740000000000000000000000000000600082015250565b6000610b2d601283610571565b9150610b3882610af7565b602082019050919050565b60006020820190508181036000830152610b5c81610b20565b9050919050565b610b6c81610987565b82525050565b6000602082019050610b876000830184610b63565b92915050565b610b9681610931565b8114610ba157600080fd5b50565b600081519050610bb381610b8d565b92915050565b6000610bc482610987565b9050919050565b610bd481610bb9565b8114610bdf57600080fd5b50565b600081519050610bf181610bcb565b92915050565b60008060408385031215610c0e57610c0d610669565b5b6000610c1c85828601610ba4565b9250506020610c2d85828601610be2565b9150509250929050565b600081519050610c468161072e565b92915050565b600060208284031215610c6257610c61610669565b5b6000610c7084828501610c37565b91505092915050565b610c82816106f8565b82525050565b610c9181610532565b82525050565b610ca081610621565b82525050565b600082825260208201905092915050565b6000610cc282610566565b610ccc8185610ca6565b9350610cdc818560208601610582565b610ce5816105b5565b840191505092915050565b600060a083016000830151610d086000860182610c79565b506020830151610d1b6020860182610c88565b506040830151610d2e6040860182610c88565b506060830151610d416060860182610c97565b5060808301518482036080860152610d598282610cb7565b9150508091505092915050565b60006020820190508181036000830152610d808184610cf0565b90509291505056fea2646970667358221220df17a87a12abde726e4dcf950bcee92bc4360ac44ac9093d82cccb207cf70e9764736f6c634300080d0033",
  "immutableReferences": {},
  "source": "// SPDX-License-Identifier: MIT\npragma solidity >= 0.8.13;\n\nimport \"./Ticket.sol\";\nimport \"./IEndPoint.sol\";\nimport \"./ITicketGranter.sol\";\n\nimport \"./EndPointBase.sol\";\nimport \"./IEmployeeManagment.sol\";\n\ncontract DoorEndPoint is IEndPoint, ITicketGranter, EndPointEncryptedSecretData {\n\n    IEmployeeManagment managment;\n\n    constructor(bytes32 _endpoint_id, IEmployeeManagment _managment, uint64 _validity_length, string memory _publickey) \n        EndPointBase(_endpoint_id) EndPointEncryptedSecretData(_validity_length, _publickey) {\n        managment = _managment;\n    }\n    \n    function CreateTicket(IEndPoint endpoint, string calldata data) external override returns(bool) {\n        require(this == endpoint, \"Incorrect endpoint\");\n\n        (bool active, IEmployee e) = managment.get_employee_address(msg.sender);\n        // require(active, \"Employee not active\");\n        if (!active) {\n            return false;\n        }\n\n        Ticket memory ticket = Ticket({\n             timestamp: block.timestamp,\n             endpoint_id : endpoint.endpoint_id(),\n             employee_id: e.employee_id(),\n\n             validity_length: validity_length,\n             data: data\n        });\n\n        bool valid = validate_ticket(ticket);\n        if (!valid) {\n            return false;\n        }\n        \n        emit TicketIssued(ticket);\n        return true;\n    }\n}",
  "sourcePath": "/Users/mi/Dropbox (Technion Dropbox)/main/courses/M.Sc. Technion Courses/236332:3 - IoT -  Technologies and Implementations & Project in IoT/Project/contracts/contracts/DoorEndPoint.sol",
  "compiler": {
    "name": "solc",
    "version": "0.8.13+commit.abaa5c0e.Emscripten.clang"
  },
  "schemaVersion": "3.4.9",
  "updatedAt": "2022-11-13T18:39:07.258Z",
  "networkType": "ethereum",
  "devdoc": {
    "kind": "dev",
    "methods": {},
    "version": 1
  },
  "userdoc": {
    "kind": "user",
    "methods": {},
    "version": 1
  }
}