{
  "contractName": "EmployeeManagment",
  "abi": [
    {
      "inputs": [
        {
          "internalType": "address",
          "name": "manager_",
          "type": "address"
        }
      ],
      "stateMutability": "nonpayable",
      "type": "constructor"
    },
    {
      "inputs": [
        {
          "internalType": "address",
          "name": "id",
          "type": "address"
        }
      ],
      "name": "is_manager",
      "outputs": [
        {
          "internalType": "bool",
          "name": "",
          "type": "bool"
        }
      ],
      "stateMutability": "view",
      "type": "function",
      "constant": true
    },
    {
      "inputs": [
        {
          "internalType": "contract IEmployeeFactory",
          "name": "factory_",
          "type": "address"
        }
      ],
      "name": "set_factory",
      "outputs": [],
      "stateMutability": "nonpayable",
      "type": "function"
    },
    {
      "inputs": [
        {
          "internalType": "bytes32",
          "name": "employee_id",
          "type": "bytes32"
        },
        {
          "internalType": "address",
          "name": "employee_address",
          "type": "address"
        },
        {
          "internalType": "string",
          "name": "name_",
          "type": "string"
        }
      ],
      "name": "new_employee",
      "outputs": [
        {
          "internalType": "contract IEmployee",
          "name": "",
          "type": "address"
        }
      ],
      "stateMutability": "nonpayable",
      "type": "function"
    },
    {
      "inputs": [
        {
          "internalType": "address",
          "name": "addr",
          "type": "address"
        }
      ],
      "name": "get_employee_address",
      "outputs": [
        {
          "internalType": "bool",
          "name": "",
          "type": "bool"
        },
        {
          "internalType": "contract IEmployee",
          "name": "",
          "type": "address"
        }
      ],
      "stateMutability": "view",
      "type": "function",
      "constant": true
    },
    {
      "inputs": [
        {
          "internalType": "address",
          "name": "addr",
          "type": "address"
        }
      ],
      "name": "is_employee_active",
      "outputs": [
        {
          "internalType": "bool",
          "name": "",
          "type": "bool"
        }
      ],
      "stateMutability": "nonpayable",
      "type": "function"
    }
  ],
  "bytecode": "0x60806040523480156200001157600080fd5b50604051620011553803806200115583398181016040528101906200003791906200025b565b806000806101000a81548173ffffffffffffffffffffffffffffffffffffffff021916908373ffffffffffffffffffffffffffffffffffffffff160217905550620000816200018f565b600181908060018154018082558091505060019003906000526020600020906004020160009091909190915060008201518160000160006101000a81548160ff0219169083151502179055506020820151816001015560408201518160020160006101000a81548173ffffffffffffffffffffffffffffffffffffffff021916908373ffffffffffffffffffffffffffffffffffffffff16021790555060608201518160030160006101000a81548173ffffffffffffffffffffffffffffffffffffffff021916908373ffffffffffffffffffffffffffffffffffffffff16021790555060808201518160030160146101000a81548160ff021916908315150217905550505050506200028d565b6040518060a0016040528060001515815260200160008019168152602001600073ffffffffffffffffffffffffffffffffffffffff168152602001600073ffffffffffffffffffffffffffffffffffffffff1681526020016000151581525090565b600080fd5b600073ffffffffffffffffffffffffffffffffffffffff82169050919050565b60006200022382620001f6565b9050919050565b620002358162000216565b81146200024157600080fd5b50565b60008151905062000255816200022a565b92915050565b600060208284031215620002745762000273620001f1565b5b6000620002848482850162000244565b91505092915050565b610eb8806200029d6000396000f3fe608060405234801561001057600080fd5b50600436106100575760003560e01c80632352c0311461005c5780637923ce4f1461008c57806395de2fa0146100bc578063cb40496a146100ec578063ee2af3fb1461011d575b600080fd5b61007660048036038101906100719190610a06565b610139565b6040516100839190610ad4565b60405180910390f35b6100a660048036038101906100a19190610aef565b61056c565b6040516100b39190610b37565b60405180910390f35b6100d660048036038101906100d19190610aef565b6105c5565b6040516100e39190610b37565b60405180910390f35b61010660048036038101906101019190610aef565b6105dd565b604051610114929190610b52565b60405180910390f35b61013760048036038101906101329190610bb9565b61070d565b005b60006101443361056c565b61014d57600080fd5b600073ffffffffffffffffffffffffffffffffffffffff16600460009054906101000a900473ffffffffffffffffffffffffffffffffffffffff1673ffffffffffffffffffffffffffffffffffffffff16036101de576040517f08c379a00000000000000000000000000000000000000000000000000000000081526004016101d590610c43565b60405180910390fd5b6001600360008573ffffffffffffffffffffffffffffffffffffffff1673ffffffffffffffffffffffffffffffffffffffff168152602001908152602001600020548154811061023157610230610c63565b5b906000526020600020906004020160000160009054906101000a900460ff161580156102a05750600160026000868152602001908152602001600020548154811061027f5761027e610c63565b5b906000526020600020906004020160000160009054906101000a900460ff16155b6102a957600080fd5b600060405180606001604052808681526020018481526020018573ffffffffffffffffffffffffffffffffffffffff1681525090506000600460009054906101000a900473ffffffffffffffffffffffffffffffffffffffff1673ffffffffffffffffffffffffffffffffffffffff16630db0be7a836040518263ffffffff1660e01b815260040161033b9190610d88565b6020604051808303816000875af115801561035a573d6000803e3d6000fd5b505050506040513d601f19601f8201168201806040525081019061037e9190610de8565b905060006040518060a001604052806001151581526020018881526020018773ffffffffffffffffffffffffffffffffffffffff1681526020018373ffffffffffffffffffffffffffffffffffffffff168152602001600115158152509050600181908060018154018082558091505060019003906000526020600020906004020160009091909190915060008201518160000160006101000a81548160ff0219169083151502179055506020820151816001015560408201518160020160006101000a81548173ffffffffffffffffffffffffffffffffffffffff021916908373ffffffffffffffffffffffffffffffffffffffff16021790555060608201518160030160006101000a81548173ffffffffffffffffffffffffffffffffffffffff021916908373ffffffffffffffffffffffffffffffffffffffff16021790555060808201518160030160146101000a81548160ff0219169083151502179055505050600180805490506104f49190610e4e565b60026000898152602001908152602001600020819055506001808054905061051c9190610e4e565b600360008873ffffffffffffffffffffffffffffffffffffffff1673ffffffffffffffffffffffffffffffffffffffff168152602001908152602001600020819055508193505050509392505050565b60008060009054906101000a900473ffffffffffffffffffffffffffffffffffffffff1673ffffffffffffffffffffffffffffffffffffffff168273ffffffffffffffffffffffffffffffffffffffff16149050919050565b6000806105d183610763565b50905080915050919050565b6000806000806105ec85610763565b6040518060a00160405290816000820160009054906101000a900460ff16151515158152602001600182015481526020016002820160009054906101000a900473ffffffffffffffffffffffffffffffffffffffff1673ffffffffffffffffffffffffffffffffffffffff1673ffffffffffffffffffffffffffffffffffffffff1681526020016003820160009054906101000a900473ffffffffffffffffffffffffffffffffffffffff1673ffffffffffffffffffffffffffffffffffffffff1673ffffffffffffffffffffffffffffffffffffffff1681526020016003820160149054906101000a900460ff16151515158152505091509150816106fa57600080935093505050610708565b600181606001519350935050505b915091565b6107163361056c565b61071f57600080fd5b80600460006101000a81548173ffffffffffffffffffffffffffffffffffffffff021916908373ffffffffffffffffffffffffffffffffffffffff16021790555050565b60008060006001600360008673ffffffffffffffffffffffffffffffffffffffff1673ffffffffffffffffffffffffffffffffffffffff16815260200190815260200160002054815481106107bb576107ba610c63565b5b906000526020600020906004020190508060000160009054906101000a900460ff1615806107f857508060030160149054906101000a900460ff16155b1561080a576000819250925050610813565b60018192509250505b915091565b6000604051905090565b600080fd5b600080fd5b6000819050919050565b61083f8161082c565b811461084a57600080fd5b50565b60008135905061085c81610836565b92915050565b600073ffffffffffffffffffffffffffffffffffffffff82169050919050565b600061088d82610862565b9050919050565b61089d81610882565b81146108a857600080fd5b50565b6000813590506108ba81610894565b92915050565b600080fd5b600080fd5b6000601f19601f8301169050919050565b7f4e487b7100000000000000000000000000000000000000000000000000000000600052604160045260246000fd5b610913826108ca565b810181811067ffffffffffffffff82111715610932576109316108db565b5b80604052505050565b6000610945610818565b9050610951828261090a565b919050565b600067ffffffffffffffff821115610971576109706108db565b5b61097a826108ca565b9050602081019050919050565b82818337600083830152505050565b60006109a96109a484610956565b61093b565b9050828152602081018484840111156109c5576109c46108c5565b5b6109d0848285610987565b509392505050565b600082601f8301126109ed576109ec6108c0565b5b81356109fd848260208601610996565b91505092915050565b600080600060608486031215610a1f57610a1e610822565b5b6000610a2d8682870161084d565b9350506020610a3e868287016108ab565b925050604084013567ffffffffffffffff811115610a5f57610a5e610827565b5b610a6b868287016109d8565b9150509250925092565b6000819050919050565b6000610a9a610a95610a9084610862565b610a75565b610862565b9050919050565b6000610aac82610a7f565b9050919050565b6000610abe82610aa1565b9050919050565b610ace81610ab3565b82525050565b6000602082019050610ae96000830184610ac5565b92915050565b600060208284031215610b0557610b04610822565b5b6000610b13848285016108ab565b91505092915050565b60008115159050919050565b610b3181610b1c565b82525050565b6000602082019050610b4c6000830184610b28565b92915050565b6000604082019050610b676000830185610b28565b610b746020830184610ac5565b9392505050565b6000610b8682610882565b9050919050565b610b9681610b7b565b8114610ba157600080fd5b50565b600081359050610bb381610b8d565b92915050565b600060208284031215610bcf57610bce610822565b5b6000610bdd84828501610ba4565b91505092915050565b600082825260208201905092915050565b7f4e6f20466163746f727900000000000000000000000000000000000000000000600082015250565b6000610c2d600a83610be6565b9150610c3882610bf7565b602082019050919050565b60006020820190508181036000830152610c5c81610c20565b9050919050565b7f4e487b7100000000000000000000000000000000000000000000000000000000600052603260045260246000fd5b610c9b8161082c565b82525050565b600081519050919050565b600082825260208201905092915050565b60005b83811015610cdb578082015181840152602081019050610cc0565b83811115610cea576000848401525b50505050565b6000610cfb82610ca1565b610d058185610cac565b9350610d15818560208601610cbd565b610d1e816108ca565b840191505092915050565b610d3281610882565b82525050565b6000606083016000830151610d506000860182610c92565b5060208301518482036020860152610d688282610cf0565b9150506040830151610d7d6040860182610d29565b508091505092915050565b60006020820190508181036000830152610da28184610d38565b905092915050565b6000610db582610882565b9050919050565b610dc581610daa565b8114610dd057600080fd5b50565b600081519050610de281610dbc565b92915050565b600060208284031215610dfe57610dfd610822565b5b6000610e0c84828501610dd3565b91505092915050565b6000819050919050565b7f4e487b7100000000000000000000000000000000000000000000000000000000600052601160045260246000fd5b6000610e5982610e15565b9150610e6483610e15565b925082821015610e7757610e76610e1f565b5b82820390509291505056fea264697066735822122069ce34406b975fea3a1528cda5faa5adb65042e7b06e8e514cdeaf71b0f6bb3a64736f6c634300080d0033",
  "immutableReferences": {},
  "source": "// SPDX-License-Identifier: MIT\npragma solidity >= 0.8.13;\n\nimport \"./ITicketGranter.sol\";\nimport \"./IEndPoint.sol\";\nimport \"./IEmployee.sol\";\nimport \"./IEmployeeManagment.sol\"; \n\ncontract EmployeeManagment is IEmployeeManagment {\n    address manager;\n    modifier onlyManager {\n        require(is_manager(msg.sender));\n        _;\n    }\n    function is_manager(address id) public view returns (bool) {\n        return id == address(manager);\n    }\n\n    struct EmployeeRecord {\n        bool exists;\n\n        bytes32 employee_id;\n        address employee_address;\n        IEmployee employee_obj;\n\n        bool active;\n    }\n    EmployeeRecord[] records;\n    mapping(bytes32 => uint) employee_ids;\n    mapping(address => uint) employee_addrs;\n\n    IEmployeeFactory factory;\n    function set_factory(IEmployeeFactory factory_) public onlyManager {\n        factory = factory_;\n    }\n\n    function new_employee(\n        bytes32 employee_id,\n        address employee_address,\n        string memory name_\n    )\n    public onlyManager\n    returns (IEmployee) {\n        require(factory != IEmployeeFactory(address(0x0)), \"No Factory\");\n        require(!records[employee_addrs[employee_address]].exists && !records[employee_ids[employee_id]].exists);\n\n        IEmployeeFactory.ConstructingData memory data = IEmployeeFactory.ConstructingData({\n            id: employee_id,\n            name: name_,\n            employee_addr: employee_address\n        });\n        IEmployee employee = factory.make(data);\n\n        EmployeeRecord memory er = EmployeeRecord({\n            exists: true,\n\n            employee_id: employee_id,\n            employee_address: employee_address,\n            employee_obj:employee,\n\n            active: true\n        });\n        records.push(er);\n\n        employee_ids[employee_id] = records.length - 1;\n        employee_addrs[employee_address] = records.length - 1;\n\n        return employee;\n    }\n\n    constructor(address manager_) {\n        manager = manager_;\n        EmployeeRecord memory er;\n        records.push(er);\n    }\n\n    function get_employeerec_address(address addr) private view returns(bool, EmployeeRecord storage) {\n        EmployeeRecord storage er = records[employee_addrs[addr]];\n        if (!er.exists || !er.active) {\n            return (false, er);\n        } else {\n            return (true, er);\n        }\n    }\n\n    function get_employee_address(address addr) public view override returns(bool, IEmployee) {\n        (bool active, EmployeeRecord memory er) = get_employeerec_address(addr);\n        if (!active) {\n            return (false, IEmployee(address(0x0)));\n        } else {\n            return (true, er.employee_obj);\n        }\n    }\n\n    function is_employee_active(address addr) public override returns(bool) {\n        (bool active,) = get_employeerec_address(addr);\n        return active;\n    }\n}",
  "sourcePath": "/Users/mi/Dropbox (Technion Dropbox)/main/courses/M.Sc. Technion Courses/236332:3 - IoT -  Technologies and Implementations & Project in IoT/Project/contracts/contracts/EmployeeManagment.sol",
  "compiler": {
    "name": "solc",
    "version": "0.8.13+commit.abaa5c0e.Emscripten.clang"
  },
  "schemaVersion": "3.4.9",
  "updatedAt": "2022-11-13T18:39:07.249Z",
  "networkType": "ethereum",
  "devdoc": {
    "kind": "dev",
    "methods": {},
    "version": 1
  },
  "userdoc": {
    "kind": "user",
    "methods": {},
    "version": 1
  }
}