{
  "contractName": "EmpolyeeFactory",
  "abi": [
    {
      "inputs": [
        {
          "internalType": "contract IEmployeeManagment",
          "name": "manager_",
          "type": "address"
        }
      ],
      "stateMutability": "nonpayable",
      "type": "constructor"
    },
    {
      "inputs": [
        {
          "components": [
            {
              "internalType": "bytes32",
              "name": "id",
              "type": "bytes32"
            },
            {
              "internalType": "string",
              "name": "name",
              "type": "string"
            },
            {
              "internalType": "address",
              "name": "employee_addr",
              "type": "address"
            }
          ],
          "internalType": "struct IEmployeeFactory.ConstructingData",
          "name": "data",
          "type": "tuple"
        }
      ],
      "name": "make",
      "outputs": [
        {
          "internalType": "contract IEmployee",
          "name": "",
          "type": "address"
        }
      ],
      "stateMutability": "nonpayable",
      "type": "function"
    }
  ],
  "bytecode": "0x608060405234801561001057600080fd5b50604051610f64380380610f64833981810160405281019061003291906100ed565b806000806101000a81548173ffffffffffffffffffffffffffffffffffffffff021916908373ffffffffffffffffffffffffffffffffffffffff1602179055505061011a565b600080fd5b600073ffffffffffffffffffffffffffffffffffffffff82169050919050565b60006100a88261007d565b9050919050565b60006100ba8261009d565b9050919050565b6100ca816100af565b81146100d557600080fd5b50565b6000815190506100e7816100c1565b92915050565b60006020828403121561010357610102610078565b5b6000610111848285016100d8565b91505092915050565b610e3b806101296000396000f3fe60806040523480156200001157600080fd5b50600436106200002e5760003560e01c80630db0be7a1462000033575b600080fd5b6200005160048036038101906200004b91906200039e565b62000069565b6040516200006091906200045a565b60405180910390f35b60008082604001518360000151846020015160008054906101000a900473ffffffffffffffffffffffffffffffffffffffff16604051620000aa90620000e2565b620000b9949392919062000551565b604051809103906000f080158015620000d6573d6000803e3d6000fd5b50905080915050919050565b61086080620005a683390190565b6000604051905090565b600080fd5b600080fd5b600080fd5b6000601f19601f8301169050919050565b7f4e487b7100000000000000000000000000000000000000000000000000000000600052604160045260246000fd5b620001548262000109565b810181811067ffffffffffffffff821117156200017657620001756200011a565b5b80604052505050565b60006200018b620000f0565b905062000199828262000149565b919050565b600080fd5b6000819050919050565b620001b881620001a3565b8114620001c457600080fd5b50565b600081359050620001d881620001ad565b92915050565b600080fd5b600080fd5b600067ffffffffffffffff8211156200020657620002056200011a565b5b620002118262000109565b9050602081019050919050565b82818337600083830152505050565b6000620002446200023e84620001e8565b6200017f565b905082815260208101848484011115620002635762000262620001e3565b5b620002708482856200021e565b509392505050565b600082601f83011262000290576200028f620001de565b5b8135620002a28482602086016200022d565b91505092915050565b600073ffffffffffffffffffffffffffffffffffffffff82169050919050565b6000620002d882620002ab565b9050919050565b620002ea81620002cb565b8114620002f657600080fd5b50565b6000813590506200030a81620002df565b92915050565b60006060828403121562000329576200032862000104565b5b6200033560606200017f565b905060006200034784828501620001c7565b600083015250602082013567ffffffffffffffff8111156200036e576200036d6200019e565b5b6200037c8482850162000278565b60208301525060406200039284828501620002f9565b60408301525092915050565b600060208284031215620003b757620003b6620000fa565b5b600082013567ffffffffffffffff811115620003d857620003d7620000ff565b5b620003e68482850162000310565b91505092915050565b6000819050919050565b60006200041a620004146200040e84620002ab565b620003ef565b620002ab565b9050919050565b60006200042e82620003f9565b9050919050565b6000620004428262000421565b9050919050565b620004548162000435565b82525050565b600060208201905062000471600083018462000449565b92915050565b6200048281620002cb565b82525050565b6200049381620001a3565b82525050565b600081519050919050565b600082825260208201905092915050565b60005b83811015620004d5578082015181840152602081019050620004b8565b83811115620004e5576000848401525b50505050565b6000620004f88262000499565b620005048185620004a4565b935062000516818560208601620004b5565b620005218162000109565b840191505092915050565b6000620005398262000421565b9050919050565b6200054b816200052c565b82525050565b600060808201905062000568600083018762000477565b62000577602083018662000488565b81810360408301526200058b8185620004eb565b90506200059c606083018462000540565b9594505050505056fe60806040523480156200001157600080fd5b506040516200086038038062000860833981810160405281019062000037919062000415565b83600160006101000a81548173ffffffffffffffffffffffffffffffffffffffff021916908373ffffffffffffffffffffffffffffffffffffffff16021790555082600081905550816002908051906020019062000097929190620000e3565b5080600360006101000a81548173ffffffffffffffffffffffffffffffffffffffff021916908373ffffffffffffffffffffffffffffffffffffffff160217905550505050506200050a565b828054620000f190620004d5565b90600052602060002090601f01602090048101928262000115576000855562000161565b82601f106200013057805160ff191683800117855562000161565b8280016001018555821562000161579182015b828111156200016057825182559160200191906001019062000143565b5b50905062000170919062000174565b5090565b5b808211156200018f57600081600090555060010162000175565b5090565b6000604051905090565b600080fd5b600080fd5b600073ffffffffffffffffffffffffffffffffffffffff82169050919050565b6000620001d482620001a7565b9050919050565b620001e681620001c7565b8114620001f257600080fd5b50565b6000815190506200020681620001db565b92915050565b6000819050919050565b62000221816200020c565b81146200022d57600080fd5b50565b600081519050620002418162000216565b92915050565b600080fd5b600080fd5b6000601f19601f8301169050919050565b7f4e487b7100000000000000000000000000000000000000000000000000000000600052604160045260246000fd5b6200029c8262000251565b810181811067ffffffffffffffff82111715620002be57620002bd62000262565b5b80604052505050565b6000620002d362000193565b9050620002e1828262000291565b919050565b600067ffffffffffffffff82111562000304576200030362000262565b5b6200030f8262000251565b9050602081019050919050565b60005b838110156200033c5780820151818401526020810190506200031f565b838111156200034c576000848401525b50505050565b6000620003696200036384620002e6565b620002c7565b9050828152602081018484840111156200038857620003876200024c565b5b620003958482856200031c565b509392505050565b600082601f830112620003b557620003b462000247565b5b8151620003c784826020860162000352565b91505092915050565b6000620003dd82620001c7565b9050919050565b620003ef81620003d0565b8114620003fb57600080fd5b50565b6000815190506200040f81620003e4565b92915050565b600080600080608085870312156200043257620004316200019d565b5b60006200044287828801620001f5565b9450506020620004558782880162000230565b935050604085015167ffffffffffffffff811115620004795762000478620001a2565b5b62000487878288016200039d565b92505060606200049a87828801620003fe565b91505092959194509250565b7f4e487b7100000000000000000000000000000000000000000000000000000000600052602260045260246000fd5b60006002820490506001821680620004ee57607f821691505b602082108103620005045762000503620004a6565b5b50919050565b610346806200051a6000396000f3fe608060405234801561001057600080fd5b50600436106100415760003560e01c80632ad1acf014610046578063387dbcab14610064578063768b886d14610082575b600080fd5b61004e6100a0565b60405161005b91906101a6565b60405180910390f35b61006c6100ca565b60405161007991906101da565b60405180910390f35b61008a6100d3565b604051610097919061028e565b60405180910390f35b6000600160009054906101000a900473ffffffffffffffffffffffffffffffffffffffff16905090565b60008054905090565b6060600280546100e2906102df565b80601f016020809104026020016040519081016040528092919081815260200182805461010e906102df565b801561015b5780601f106101305761010080835404028352916020019161015b565b820191906000526020600020905b81548152906001019060200180831161013e57829003601f168201915b5050505050905090565b600073ffffffffffffffffffffffffffffffffffffffff82169050919050565b600061019082610165565b9050919050565b6101a081610185565b82525050565b60006020820190506101bb6000830184610197565b92915050565b6000819050919050565b6101d4816101c1565b82525050565b60006020820190506101ef60008301846101cb565b92915050565b600081519050919050565b600082825260208201905092915050565b60005b8381101561022f578082015181840152602081019050610214565b8381111561023e576000848401525b50505050565b6000601f19601f8301169050919050565b6000610260826101f5565b61026a8185610200565b935061027a818560208601610211565b61028381610244565b840191505092915050565b600060208201905081810360008301526102a88184610255565b905092915050565b7f4e487b7100000000000000000000000000000000000000000000000000000000600052602260045260246000fd5b600060028204905060018216806102f757607f821691505b60208210810361030a576103096102b0565b5b5091905056fea2646970667358221220c5df9fd626dce6746cdb5693f9356525be2da580eb8eefde00def314281d05cd64736f6c634300080d0033a264697066735822122097f08d1b7ea26d5c70c6fd755f7193b203f78e676a7512b4be047abad5d98ba964736f6c634300080d0033",
  "immutableReferences": {},
  "source": "// SPDX-License-Identifier: MIT\npragma solidity >= 0.8.13;\n\nimport \"./IEmployee.sol\";\nimport \"./IEmployeeManagment.sol\";\n\ncontract Empolyee is IEmployee {\n\n    bytes32 _employee_id;\n    function employee_id() public view override returns (bytes32) { return _employee_id;}\n\n    address _employee_addr;\n    function employee_address() public view override returns (address) { return _employee_addr; }\n    modifier onlyEmployee {\n        require(msg.sender == _employee_addr);\n        _;\n    }\n\n    string _employee_name;\n    function employee_name() public view override returns (string memory) { return _employee_name; }\n\n    IEmployeeManagment manager;\n    modifier onlyManager {\n        require(msg.sender == address(manager) || manager.is_manager(msg.sender));\n        _;\n    }\n\n    constructor(address employee_addr_, bytes32 employee_id_, string memory employee_name_, IEmployeeManagment manager_) {\n        _employee_addr = employee_addr_;\n        _employee_id = employee_id_;\n        _employee_name = employee_name_;\n        manager = manager_;\n    }\n\n   \n}\n\ncontract EmpolyeeFactory is IEmployeeFactory {\n    IEmployeeManagment manager;\n\n    constructor(IEmployeeManagment manager_) {\n        manager = manager_;\n    }\n\n    function make(ConstructingData memory data) external override returns (IEmployee) {\n        IEmployee employee = new Empolyee(\n            data.employee_addr,\n            data.id,\n            data.name,\n            manager\n        );\n        return employee;\n    }\n}",
  "sourcePath": "/Users/mi/Dropbox (Technion Dropbox)/main/courses/M.Sc. Technion Courses/236332:3 - IoT -  Technologies and Implementations & Project in IoT/Project/contracts/contracts/Employee.sol",
  "compiler": {
    "name": "solc",
    "version": "0.8.13+commit.abaa5c0e.Emscripten.clang"
  },
  "schemaVersion": "3.4.9",
  "updatedAt": "2022-11-13T18:39:07.252Z",
  "networkType": "ethereum",
  "devdoc": {
    "kind": "dev",
    "methods": {},
    "version": 1
  },
  "userdoc": {
    "kind": "user",
    "methods": {},
    "version": 1
  }
}