{
  "contractName": "Empolyee",
  "abi": [
    {
      "inputs": [
        {
          "internalType": "address",
          "name": "employee_addr_",
          "type": "address"
        },
        {
          "internalType": "bytes32",
          "name": "employee_id_",
          "type": "bytes32"
        },
        {
          "internalType": "string",
          "name": "employee_name_",
          "type": "string"
        },
        {
          "internalType": "contract IEmployeeManagment",
          "name": "manager_",
          "type": "address"
        }
      ],
      "stateMutability": "nonpayable",
      "type": "constructor"
    },
    {
      "inputs": [],
      "name": "employee_id",
      "outputs": [
        {
          "internalType": "bytes32",
          "name": "",
          "type": "bytes32"
        }
      ],
      "stateMutability": "view",
      "type": "function"
    },
    {
      "inputs": [],
      "name": "employee_address",
      "outputs": [
        {
          "internalType": "address",
          "name": "",
          "type": "address"
        }
      ],
      "stateMutability": "view",
      "type": "function"
    },
    {
      "inputs": [],
      "name": "employee_name",
      "outputs": [
        {
          "internalType": "string",
          "name": "",
          "type": "string"
        }
      ],
      "stateMutability": "view",
      "type": "function"
    }
  ],
  "bytecode": "0x60806040523480156200001157600080fd5b506040516200086038038062000860833981810160405281019062000037919062000415565b83600160006101000a81548173ffffffffffffffffffffffffffffffffffffffff021916908373ffffffffffffffffffffffffffffffffffffffff16021790555082600081905550816002908051906020019062000097929190620000e3565b5080600360006101000a81548173ffffffffffffffffffffffffffffffffffffffff021916908373ffffffffffffffffffffffffffffffffffffffff160217905550505050506200050a565b828054620000f190620004d5565b90600052602060002090601f01602090048101928262000115576000855562000161565b82601f106200013057805160ff191683800117855562000161565b8280016001018555821562000161579182015b828111156200016057825182559160200191906001019062000143565b5b50905062000170919062000174565b5090565b5b808211156200018f57600081600090555060010162000175565b5090565b6000604051905090565b600080fd5b600080fd5b600073ffffffffffffffffffffffffffffffffffffffff82169050919050565b6000620001d482620001a7565b9050919050565b620001e681620001c7565b8114620001f257600080fd5b50565b6000815190506200020681620001db565b92915050565b6000819050919050565b62000221816200020c565b81146200022d57600080fd5b50565b600081519050620002418162000216565b92915050565b600080fd5b600080fd5b6000601f19601f8301169050919050565b7f4e487b7100000000000000000000000000000000000000000000000000000000600052604160045260246000fd5b6200029c8262000251565b810181811067ffffffffffffffff82111715620002be57620002bd62000262565b5b80604052505050565b6000620002d362000193565b9050620002e1828262000291565b919050565b600067ffffffffffffffff82111562000304576200030362000262565b5b6200030f8262000251565b9050602081019050919050565b60005b838110156200033c5780820151818401526020810190506200031f565b838111156200034c576000848401525b50505050565b6000620003696200036384620002e6565b620002c7565b9050828152602081018484840111156200038857620003876200024c565b5b620003958482856200031c565b509392505050565b600082601f830112620003b557620003b462000247565b5b8151620003c784826020860162000352565b91505092915050565b6000620003dd82620001c7565b9050919050565b620003ef81620003d0565b8114620003fb57600080fd5b50565b6000815190506200040f81620003e4565b92915050565b600080600080608085870312156200043257620004316200019d565b5b60006200044287828801620001f5565b9450506020620004558782880162000230565b935050604085015167ffffffffffffffff811115620004795762000478620001a2565b5b62000487878288016200039d565b92505060606200049a87828801620003fe565b91505092959194509250565b7f4e487b7100000000000000000000000000000000000000000000000000000000600052602260045260246000fd5b60006002820490506001821680620004ee57607f821691505b602082108103620005045762000503620004a6565b5b50919050565b610346806200051a6000396000f3fe608060405234801561001057600080fd5b50600436106100415760003560e01c80632ad1acf014610046578063387dbcab14610064578063768b886d14610082575b600080fd5b61004e6100a0565b60405161005b91906101a6565b60405180910390f35b61006c6100ca565b60405161007991906101da565b60405180910390f35b61008a6100d3565b604051610097919061028e565b60405180910390f35b6000600160009054906101000a900473ffffffffffffffffffffffffffffffffffffffff16905090565b60008054905090565b6060600280546100e2906102df565b80601f016020809104026020016040519081016040528092919081815260200182805461010e906102df565b801561015b5780601f106101305761010080835404028352916020019161015b565b820191906000526020600020905b81548152906001019060200180831161013e57829003601f168201915b5050505050905090565b600073ffffffffffffffffffffffffffffffffffffffff82169050919050565b600061019082610165565b9050919050565b6101a081610185565b82525050565b60006020820190506101bb6000830184610197565b92915050565b6000819050919050565b6101d4816101c1565b82525050565b60006020820190506101ef60008301846101cb565b92915050565b600081519050919050565b600082825260208201905092915050565b60005b8381101561022f578082015181840152602081019050610214565b8381111561023e576000848401525b50505050565b6000601f19601f8301169050919050565b6000610260826101f5565b61026a8185610200565b935061027a818560208601610211565b61028381610244565b840191505092915050565b600060208201905081810360008301526102a88184610255565b905092915050565b7f4e487b7100000000000000000000000000000000000000000000000000000000600052602260045260246000fd5b600060028204905060018216806102f757607f821691505b60208210810361030a576103096102b0565b5b5091905056fea2646970667358221220c5df9fd626dce6746cdb5693f9356525be2da580eb8eefde00def314281d05cd64736f6c634300080d0033",
  "immutableReferences": {},
  "source": "// SPDX-License-Identifier: MIT\npragma solidity >= 0.8.13;\n\nimport \"./IEmployee.sol\";\nimport \"./IEmployeeManagment.sol\";\n\ncontract Empolyee is IEmployee {\n\n    bytes32 _employee_id;\n    function employee_id() public view override returns (bytes32) { return _employee_id;}\n\n    address _employee_addr;\n    function employee_address() public view override returns (address) { return _employee_addr; }\n    modifier onlyEmployee {\n        require(msg.sender == _employee_addr);\n        _;\n    }\n\n    string _employee_name;\n    function employee_name() public view override returns (string memory) { return _employee_name; }\n\n    IEmployeeManagment manager;\n    modifier onlyManager {\n        require(msg.sender == address(manager) || manager.is_manager(msg.sender));\n        _;\n    }\n\n    constructor(address employee_addr_, bytes32 employee_id_, string memory employee_name_, IEmployeeManagment manager_) {\n        _employee_addr = employee_addr_;\n        _employee_id = employee_id_;\n        _employee_name = employee_name_;\n        manager = manager_;\n    }\n\n   \n}\n\ncontract EmpolyeeFactory is IEmployeeFactory {\n    IEmployeeManagment manager;\n\n    constructor(IEmployeeManagment manager_) {\n        manager = manager_;\n    }\n\n    function make(ConstructingData memory data) external override returns (IEmployee) {\n        IEmployee employee = new Empolyee(\n            data.employee_addr,\n            data.id,\n            data.name,\n            manager\n        );\n        return employee;\n    }\n}",
  "sourcePath": "/Users/mi/Dropbox (Technion Dropbox)/main/courses/M.Sc. Technion Courses/236332:3 - IoT -  Technologies and Implementations & Project in IoT/Project/contracts/contracts/Employee.sol",
  "compiler": {
    "name": "solc",
    "version": "0.8.13+commit.abaa5c0e.Emscripten.clang"
  },
  "schemaVersion": "3.4.9",
  "updatedAt": "2022-11-08T12:15:19.663Z",
  "devdoc": {
    "kind": "dev",
    "methods": {},
    "version": 1
  },
  "userdoc": {
    "kind": "user",
    "methods": {},
    "version": 1
  }
}