{
  "contractName": "MyLightsController",
  "abi": [
    {
      "inputs": [
        {
          "internalType": "bytes4[]",
          "name": "lights_",
          "type": "bytes4[]"
        },
        {
          "internalType": "uint256",
          "name": "duration_",
          "type": "uint256"
        }
      ],
      "stateMutability": "nonpayable",
      "type": "constructor"
    },
    {
      "anonymous": false,
      "inputs": [
        {
          "indexed": false,
          "internalType": "bytes4",
          "name": "device_id",
          "type": "bytes4"
        },
        {
          "components": [
            {
              "internalType": "bool",
              "name": "on",
              "type": "bool"
            }
          ],
          "indexed": false,
          "internalType": "struct DeviceController.DeviceConfig",
          "name": "cnf",
          "type": "tuple"
        }
      ],
      "name": "DeviceConfigChange",
      "type": "event"
    },
    {
      "anonymous": false,
      "inputs": [
        {
          "indexed": true,
          "internalType": "address",
          "name": "previousOwner",
          "type": "address"
        },
        {
          "indexed": true,
          "internalType": "address",
          "name": "newOwner",
          "type": "address"
        }
      ],
      "name": "OwnershipTransferred",
      "type": "event"
    },
    {
      "inputs": [],
      "name": "doIteration",
      "outputs": [],
      "stateMutability": "nonpayable",
      "type": "function"
    },
    {
      "inputs": [],
      "name": "owner",
      "outputs": [
        {
          "internalType": "address",
          "name": "",
          "type": "address"
        }
      ],
      "stateMutability": "view",
      "type": "function",
      "constant": true
    },
    {
      "inputs": [],
      "name": "renounceOwnership",
      "outputs": [],
      "stateMutability": "nonpayable",
      "type": "function"
    },
    {
      "inputs": [
        {
          "internalType": "address",
          "name": "newOwner",
          "type": "address"
        }
      ],
      "name": "transferOwnership",
      "outputs": [],
      "stateMutability": "nonpayable",
      "type": "function"
    }
  ],
  "bytecode": "0x60806040523480156200001157600080fd5b5060405162000dcf38038062000dcf833981810160405281019062000037919062000495565b8181620000596200004d620000d560201b60201c565b620000dd60201b60201c565b816001908051906020019062000071929190620001a1565b50806002819055506001600460006101000a81548160ff0219169083151502179055506000600381905550505060006005819055506001805490506006819055506001600760006101000a81548160ff0219169083151502179055505050620004fb565b600033905090565b60008060009054906101000a900473ffffffffffffffffffffffffffffffffffffffff169050816000806101000a81548173ffffffffffffffffffffffffffffffffffffffff021916908373ffffffffffffffffffffffffffffffffffffffff1602179055508173ffffffffffffffffffffffffffffffffffffffff168173ffffffffffffffffffffffffffffffffffffffff167f8be0079c531659141344cd1fd0a4f28419497f9722a3daafe3b4186f6b6457e060405160405180910390a35050565b82805482825590600052602060002090600701600890048101928215620002425791602002820160005b838211156200020e57835183826101000a81548163ffffffff021916908360e01c02179055509260200192600401602081600301049283019260010302620001cb565b8015620002405782816101000a81549063ffffffff02191690556004016020816003010492830192600103026200020e565b505b50905062000251919062000255565b5090565b5b808211156200027057600081600090555060010162000256565b5090565b6000604051905090565b600080fd5b600080fd5b600080fd5b6000601f19601f8301169050919050565b7f4e487b7100000000000000000000000000000000000000000000000000000000600052604160045260246000fd5b620002d8826200028d565b810181811067ffffffffffffffff82111715620002fa57620002f96200029e565b5b80604052505050565b60006200030f62000274565b90506200031d8282620002cd565b919050565b600067ffffffffffffffff82111562000340576200033f6200029e565b5b602082029050602081019050919050565b600080fd5b60007fffffffff0000000000000000000000000000000000000000000000000000000082169050919050565b6200038d8162000356565b81146200039957600080fd5b50565b600081519050620003ad8162000382565b92915050565b6000620003ca620003c48462000322565b62000303565b90508083825260208201905060208402830185811115620003f057620003ef62000351565b5b835b818110156200041d57806200040888826200039c565b845260208401935050602081019050620003f2565b5050509392505050565b600082601f8301126200043f576200043e62000288565b5b815162000451848260208601620003b3565b91505092915050565b6000819050919050565b6200046f816200045a565b81146200047b57600080fd5b50565b6000815190506200048f8162000464565b92915050565b60008060408385031215620004af57620004ae6200027e565b5b600083015167ffffffffffffffff811115620004d057620004cf62000283565b5b620004de8582860162000427565b9250506020620004f1858286016200047e565b9150509250929050565b6108c4806200050b6000396000f3fe608060405234801561001057600080fd5b506004361061004c5760003560e01c80635be1560214610051578063715018a61461005b5780638da5cb5b14610065578063f2fde38b14610083575b600080fd5b61005961009f565b005b610063610189565b005b61006d61019d565b60405161007a919061055b565b60405180910390f35b61009d600480360381019061009891906105a7565b6101c6565b005b6100a7610249565b6100b26003546102c7565b60005b600180549050811015610163576000600182815481106100d8576100d76105d4565b5b90600052602060002090600891828204019190066004029054906101000a900460e01b9050600080610109836102ca565b91509150811561014d577f124315809676f7463107c04210d9bcd69c82fb6efde0f590092d940a2b66da098382604051610144929190610675565b60405180910390a15b505050808061015b906106d7565b9150506100b5565b5061016f6003546103ac565b60036000815480929190610182906106d7565b9190505550565b610191610249565b61019b6000610439565b565b60008060009054906101000a900473ffffffffffffffffffffffffffffffffffffffff16905090565b6101ce610249565b600073ffffffffffffffffffffffffffffffffffffffff168173ffffffffffffffffffffffffffffffffffffffff160361023d576040517f08c379a0000000000000000000000000000000000000000000000000000000008152600401610234906107a2565b60405180910390fd5b61024681610439565b50565b6102516104fd565b73ffffffffffffffffffffffffffffffffffffffff1661026f61019d565b73ffffffffffffffffffffffffffffffffffffffff16146102c5576040517f08c379a00000000000000000000000000000000000000000000000000000000081526004016102bc9061080e565b60405180910390fd5b565b50565b60006102d4610505565b6000600190506102e2610505565b600760009054906101000a900460ff1680610372575060016005548154811061030e5761030d6105d4565b5b90600052602060002090600891828204019190066004029054906101000a900460e01b7bffffffffffffffffffffffffffffffffffffffffffffffffffffffff1916857bffffffffffffffffffffffffffffffffffffffffffffffffffffffff1916145b1561038d57600181600001901515908115158152505061039f565b60008160000190151590811515815250505b8181935093505050915091565b600760009054906101000a900460ff16156103e1576000600760006101000a81548160ff021916908315150217905550610436565b600560008154809291906103f4906106d7565b9190505550600654600554610409919061085d565b600581905550600060055403610435576001600760006101000a81548160ff0219169083151502179055505b5b50565b60008060009054906101000a900473ffffffffffffffffffffffffffffffffffffffff169050816000806101000a81548173ffffffffffffffffffffffffffffffffffffffff021916908373ffffffffffffffffffffffffffffffffffffffff1602179055508173ffffffffffffffffffffffffffffffffffffffff168173ffffffffffffffffffffffffffffffffffffffff167f8be0079c531659141344cd1fd0a4f28419497f9722a3daafe3b4186f6b6457e060405160405180910390a35050565b600033905090565b60405180602001604052806000151581525090565b600073ffffffffffffffffffffffffffffffffffffffff82169050919050565b60006105458261051a565b9050919050565b6105558161053a565b82525050565b6000602082019050610570600083018461054c565b92915050565b600080fd5b6105848161053a565b811461058f57600080fd5b50565b6000813590506105a18161057b565b92915050565b6000602082840312156105bd576105bc610576565b5b60006105cb84828501610592565b91505092915050565b7f4e487b7100000000000000000000000000000000000000000000000000000000600052603260045260246000fd5b60007fffffffff0000000000000000000000000000000000000000000000000000000082169050919050565b61063881610603565b82525050565b60008115159050919050565b6106538161063e565b82525050565b60208201600082015161066f600085018261064a565b50505050565b600060408201905061068a600083018561062f565b6106976020830184610659565b9392505050565b7f4e487b7100000000000000000000000000000000000000000000000000000000600052601160045260246000fd5b6000819050919050565b60006106e2826106cd565b91507fffffffffffffffffffffffffffffffffffffffffffffffffffffffffffffffff82036107145761071361069e565b5b600182019050919050565b600082825260208201905092915050565b7f4f776e61626c653a206e6577206f776e657220697320746865207a65726f206160008201527f6464726573730000000000000000000000000000000000000000000000000000602082015250565b600061078c60268361071f565b915061079782610730565b604082019050919050565b600060208201905081810360008301526107bb8161077f565b9050919050565b7f4f776e61626c653a2063616c6c6572206973206e6f7420746865206f776e6572600082015250565b60006107f860208361071f565b9150610803826107c2565b602082019050919050565b60006020820190508181036000830152610827816107eb565b9050919050565b7f4e487b7100000000000000000000000000000000000000000000000000000000600052601260045260246000fd5b6000610868826106cd565b9150610873836106cd565b9250826108835761088261082e565b5b82820690509291505056fea26469706673582212209c71a58c67f836cc177e374fb1411785f1ecce4d133e53814caa4e98038ca33d64736f6c634300080d0033",
  "immutableReferences": {},
  "source": "// SPDX-License-Identifier: MIT\npragma solidity >= 0.8.13;\n\nimport \"@openzeppelin/contracts/access/Ownable.sol\";\n\ninterface DeviceController {\n    struct DeviceConfig {\n        bool on;\n    }\n    event DeviceConfigChange(bytes4 device_id, DeviceConfig cnf);\n}\n\nabstract contract LightsController is DeviceController, Ownable {\n    bytes4[] lights;\n    uint256 duration;\n    uint256 iterationCount; \n\n    bool lastState;\n\n    constructor(bytes4[] memory lights_, uint256 duration_){\n        lights = lights_;\n        duration = duration_;\n        lastState = true;\n        iterationCount = 0;\n    }\n\n    function _beginIteration(uint256 _iterationCount) internal virtual;\n    function _endIteration(uint256 _iterationCount) internal virtual;\n    function _shouldChangeConfig(bytes4 _light_id) \n        internal virtual \n        returns (bool, DeviceConfig memory);\n    \n    function doIteration() public onlyOwner {\n        _beginIteration(iterationCount);\n        for (uint256 i = 0; i < lights.length; i++) {\n            bytes4 light_id = lights[i];\n            (bool shouldChange, DeviceConfig memory cnf) = _shouldChangeConfig(light_id);\n            if (shouldChange) {\n                emit DeviceConfigChange(light_id, cnf);\n            }\n        }\n        _endIteration(iterationCount);\n        iterationCount++;\n    }\n}\n\n// contract MyLightsController2{\n//     struct DeviceConfig {\n//         bool on;\n//     }\n//     event DeviceConfigChange(bytes4 device_id, DeviceConfig cnf);\n//     bytes4[] lights;\n//     uint256 duration;\n//     uint256 iterationCount; \n\n//     bool lastState;\n\n//     uint i;\n//     uint n;\n\n//     constructor(bytes4[] memory lights_, uint256 duration_){\n//         lights = lights_;\n//         duration = duration_;\n//         lastState = true;\n//         iterationCount = 0;\n//         i = 0;\n//         n = lights.length;\n//         first = true;\n//     }\n\n//     bool first;\n//     function _beginIteration(uint256 _iterationCount) internal  {}\n//     function _endIteration(uint256 _iterationCount) internal {\n//         if(first) {\n//             first = false;\n//         } else {\n//             i++;\n//             i = i % n;\n//             if (i == 0) {\n//                 first = true;\n//             }\n//         }\n//     }\n//     function _shouldChangeConfig(bytes4 light_id) internal  \n//     returns (bool, DeviceConfig memory) {\n//         bool change = true;\n//         DeviceConfig memory cnf;\n//         if (first || light_id == lights[i]) {\n//             cnf.on = true;\n//         } else {\n//             cnf.on = false;\n//         }\n//         return (change, cnf);\n//     }\n    \n//     function doIteration() public {\n//         _beginIteration(iterationCount);\n//         for (uint256 i = 0; i < lights.length; i++) {\n//             bytes4 light_id = lights[i];\n//             (bool shouldChange, ) = _shouldChangeConfig(light_id);\n//             if (shouldChange) {\n//                 //emit DeviceConfigChange(light_id, cnf);\n//             }\n//         }\n//         _endIteration(iterationCount);\n//         iterationCount++;\n//     }\n// }\n\ncontract MyLightsController is LightsController {\n    uint i;\n    uint n; \n    constructor(bytes4[] memory lights_, uint256 duration_)\n        LightsController(lights_, duration_) {\n        i = 0;\n        n = lights.length;\n        first = true;\n    }\n\n    bool first;\n    function _beginIteration(uint256 _iterationCount) internal override {}\n    function _endIteration(uint256 _iterationCount) internal override {\n        if(first) {\n            first = false;\n        } else {\n            i++;\n            i = i % n;\n            if (i == 0) {\n                first = true;\n            }\n        }\n    }\n    function _shouldChangeConfig(bytes4 light_id) internal override \n    returns (bool, DeviceConfig memory) {\n        bool change = true;\n        DeviceConfig memory cnf;\n        if (first || light_id == lights[i]) {\n            cnf.on = true;\n        } else {\n            cnf.on = false;\n        }\n        return (change, cnf);\n    }\n}",
  "sourcePath": "/Users/mi/Dropbox (Technion Dropbox)/main/courses/M.Sc. Technion Courses/236332:3 - IoT -  Technologies and Implementations & Project in IoT/Project/contracts/contracts/LightsController.sol",
  "compiler": {
    "name": "solc",
    "version": "0.8.13+commit.abaa5c0e.Emscripten.clang"
  },
  "schemaVersion": "3.4.9",
  "updatedAt": "2022-11-13T18:39:04.555Z",
  "networkType": "ethereum",
  "devdoc": {
    "kind": "dev",
    "methods": {
      "owner()": {
        "details": "Returns the address of the current owner."
      },
      "renounceOwnership()": {
        "details": "Leaves the contract without owner. It will not be possible to call `onlyOwner` functions anymore. Can only be called by the current owner. NOTE: Renouncing ownership will leave the contract without an owner, thereby removing any functionality that is only available to the owner."
      },
      "transferOwnership(address)": {
        "details": "Transfers ownership of the contract to a new account (`newOwner`). Can only be called by the current owner."
      }
    },
    "version": 1
  },
  "userdoc": {
    "kind": "user",
    "methods": {},
    "version": 1
  }
}