{
  "contractName": "NetEndPoint",
  "abi": [
    {
      "inputs": [
        {
          "internalType": "bytes32",
          "name": "_endpoint_id",
          "type": "bytes32"
        },
        {
          "internalType": "contract IEmployeeManagment",
          "name": "_managment",
          "type": "address"
        },
        {
          "internalType": "uint64",
          "name": "_validity_length",
          "type": "uint64"
        }
      ],
      "stateMutability": "nonpayable",
      "type": "constructor"
    },
    {
      "anonymous": false,
      "inputs": [
        {
          "components": [
            {
              "internalType": "uint256",
              "name": "timestamp",
              "type": "uint256"
            },
            {
              "internalType": "bytes32",
              "name": "endpoint_id",
              "type": "bytes32"
            },
            {
              "internalType": "bytes32",
              "name": "employee_id",
              "type": "bytes32"
            },
            {
              "internalType": "uint64",
              "name": "validity_length",
              "type": "uint64"
            },
            {
              "internalType": "string",
              "name": "data",
              "type": "string"
            }
          ],
          "indexed": false,
          "internalType": "struct Ticket",
          "name": "ticket",
          "type": "tuple"
        }
      ],
      "name": "TicketIssued",
      "type": "event"
    },
    {
      "anonymous": false,
      "inputs": [
        {
          "components": [
            {
              "internalType": "uint256",
              "name": "timestamp",
              "type": "uint256"
            },
            {
              "internalType": "bytes32",
              "name": "endpoint_id",
              "type": "bytes32"
            },
            {
              "internalType": "bytes32",
              "name": "employee_id",
              "type": "bytes32"
            },
            {
              "internalType": "uint64",
              "name": "validity_length",
              "type": "uint64"
            },
            {
              "internalType": "string",
              "name": "data",
              "type": "string"
            }
          ],
          "indexed": false,
          "internalType": "struct Ticket",
          "name": "ticket",
          "type": "tuple"
        }
      ],
      "name": "TicketRejected",
      "type": "event"
    },
    {
      "inputs": [],
      "name": "endpoint_id",
      "outputs": [
        {
          "internalType": "bytes32",
          "name": "",
          "type": "bytes32"
        }
      ],
      "stateMutability": "view",
      "type": "function",
      "constant": true
    },
    {
      "inputs": [
        {
          "components": [
            {
              "internalType": "uint256",
              "name": "timestamp",
              "type": "uint256"
            },
            {
              "internalType": "bytes32",
              "name": "endpoint_id",
              "type": "bytes32"
            },
            {
              "internalType": "bytes32",
              "name": "employee_id",
              "type": "bytes32"
            },
            {
              "internalType": "uint64",
              "name": "validity_length",
              "type": "uint64"
            },
            {
              "internalType": "string",
              "name": "data",
              "type": "string"
            }
          ],
          "internalType": "struct Ticket",
          "name": "ticket",
          "type": "tuple"
        }
      ],
      "name": "validate_ticket",
      "outputs": [
        {
          "internalType": "bool",
          "name": "",
          "type": "bool"
        }
      ],
      "stateMutability": "view",
      "type": "function",
      "constant": true
    },
    {
      "inputs": [],
      "name": "validity_length",
      "outputs": [
        {
          "internalType": "uint64",
          "name": "",
          "type": "uint64"
        }
      ],
      "stateMutability": "view",
      "type": "function",
      "constant": true
    },
    {
      "inputs": [
        {
          "internalType": "contract IEndPoint",
          "name": "endpoint",
          "type": "address"
        },
        {
          "internalType": "string",
          "name": "data",
          "type": "string"
        }
      ],
      "name": "CreateTicket",
      "outputs": [
        {
          "internalType": "bool",
          "name": "",
          "type": "bool"
        }
      ],
      "stateMutability": "nonpayable",
      "type": "function"
    }
  ],
  "bytecode": "0x60806040523480156200001157600080fd5b5060405162000e6b38038062000e6b8339818101604052810190620000379190620001b3565b8083806000819055505080600160006101000a81548167ffffffffffffffff021916908367ffffffffffffffff1602179055505081600160086101000a81548173ffffffffffffffffffffffffffffffffffffffff021916908373ffffffffffffffffffffffffffffffffffffffff1602179055505050506200020f565b600080fd5b6000819050919050565b620000cf81620000ba565b8114620000db57600080fd5b50565b600081519050620000ef81620000c4565b92915050565b600073ffffffffffffffffffffffffffffffffffffffff82169050919050565b60006200012282620000f5565b9050919050565b6000620001368262000115565b9050919050565b620001488162000129565b81146200015457600080fd5b50565b60008151905062000168816200013d565b92915050565b600067ffffffffffffffff82169050919050565b6200018d816200016e565b81146200019957600080fd5b50565b600081519050620001ad8162000182565b92915050565b600080600060608486031215620001cf57620001ce620000b5565b5b6000620001df86828701620000de565b9350506020620001f28682870162000157565b925050604062000205868287016200019c565b9150509250925092565b610c4c806200021f6000396000f3fe608060405234801561001057600080fd5b506004361061004c5760003560e01c806359d9bbca1461005157806364a69dd21461006f578063d8441d2a1461008d578063ef815f4a146100bd575b600080fd5b6100596100ed565b6040516100669190610494565b60405180910390f35b6100776100f6565b60405161008491906104d2565b60405180910390f35b6100a760048036038101906100a29190610787565b610110565b6040516100b491906107eb565b60405180910390f35b6100d760048036038101906100d291906108d6565b61013e565b6040516100e491906107eb565b60405180910390f35b60008054905090565b600160009054906101000a900467ffffffffffffffff1681565b600061011a6100ed565b82602001511461012d5760009050610139565b61013682610431565b90505b919050565b60008373ffffffffffffffffffffffffffffffffffffffff163073ffffffffffffffffffffffffffffffffffffffff16146101ae576040517f08c379a00000000000000000000000000000000000000000000000000000000081526004016101a590610993565b60405180910390fd5b600080600160089054906101000a900473ffffffffffffffffffffffffffffffffffffffff1673ffffffffffffffffffffffffffffffffffffffff1663cb40496a336040518263ffffffff1660e01b815260040161020c91906109c2565b6040805180830381865afa158015610228573d6000803e3d6000fd5b505050506040513d601f19601f8201168201806040525081019061024c9190610a47565b91509150816102605760009250505061042a565b60006040518060a001604052804281526020018873ffffffffffffffffffffffffffffffffffffffff166359d9bbca6040518163ffffffff1660e01b8152600401602060405180830381865afa1580156102be573d6000803e3d6000fd5b505050506040513d601f19601f820116820180604052508101906102e29190610a9c565b81526020018373ffffffffffffffffffffffffffffffffffffffff1663387dbcab6040518163ffffffff1660e01b8152600401602060405180830381865afa158015610332573d6000803e3d6000fd5b505050506040513d601f19601f820116820180604052508101906103569190610a9c565b8152602001600160009054906101000a900467ffffffffffffffff1667ffffffffffffffff16815260200187878080601f016020809104026020016040519081016040528093929190818152602001838380828437600081840152601f19601f82011690508083019250505050505050815250905060006103d682610110565b9050806103ea57600094505050505061042a565b7ff561e7f3d6d407d93d9bb9c20dd7c5b8c6f88979b56d9660cd1038795b5cd59b826040516104199190610bf4565b60405180910390a160019450505050505b9392505050565b6000600160009054906101000a900467ffffffffffffffff1667ffffffffffffffff16826060015167ffffffffffffffff16146104715760009050610476565b600190505b919050565b6000819050919050565b61048e8161047b565b82525050565b60006020820190506104a96000830184610485565b92915050565b600067ffffffffffffffff82169050919050565b6104cc816104af565b82525050565b60006020820190506104e760008301846104c3565b92915050565b6000604051905090565b600080fd5b600080fd5b600080fd5b6000601f19601f8301169050919050565b7f4e487b7100000000000000000000000000000000000000000000000000000000600052604160045260246000fd5b61054f82610506565b810181811067ffffffffffffffff8211171561056e5761056d610517565b5b80604052505050565b60006105816104ed565b905061058d8282610546565b919050565b600080fd5b6000819050919050565b6105aa81610597565b81146105b557600080fd5b50565b6000813590506105c7816105a1565b92915050565b6105d68161047b565b81146105e157600080fd5b50565b6000813590506105f3816105cd565b92915050565b610602816104af565b811461060d57600080fd5b50565b60008135905061061f816105f9565b92915050565b600080fd5b600080fd5b600067ffffffffffffffff82111561064a57610649610517565b5b61065382610506565b9050602081019050919050565b82818337600083830152505050565b600061068261067d8461062f565b610577565b90508281526020810184848401111561069e5761069d61062a565b5b6106a9848285610660565b509392505050565b600082601f8301126106c6576106c5610625565b5b81356106d684826020860161066f565b91505092915050565b600060a082840312156106f5576106f4610501565b5b6106ff60a0610577565b9050600061070f848285016105b8565b6000830152506020610723848285016105e4565b6020830152506040610737848285016105e4565b604083015250606061074b84828501610610565b606083015250608082013567ffffffffffffffff81111561076f5761076e610592565b5b61077b848285016106b1565b60808301525092915050565b60006020828403121561079d5761079c6104f7565b5b600082013567ffffffffffffffff8111156107bb576107ba6104fc565b5b6107c7848285016106df565b91505092915050565b60008115159050919050565b6107e5816107d0565b82525050565b600060208201905061080060008301846107dc565b92915050565b600073ffffffffffffffffffffffffffffffffffffffff82169050919050565b600061083182610806565b9050919050565b600061084382610826565b9050919050565b61085381610838565b811461085e57600080fd5b50565b6000813590506108708161084a565b92915050565b600080fd5b600080fd5b60008083601f84011261089657610895610625565b5b8235905067ffffffffffffffff8111156108b3576108b2610876565b5b6020830191508360018202830111156108cf576108ce61087b565b5b9250929050565b6000806000604084860312156108ef576108ee6104f7565b5b60006108fd86828701610861565b935050602084013567ffffffffffffffff81111561091e5761091d6104fc565b5b61092a86828701610880565b92509250509250925092565b600082825260208201905092915050565b7f496e636f727265637420656e64706f696e740000000000000000000000000000600082015250565b600061097d601283610936565b915061098882610947565b602082019050919050565b600060208201905081810360008301526109ac81610970565b9050919050565b6109bc81610826565b82525050565b60006020820190506109d760008301846109b3565b92915050565b6109e6816107d0565b81146109f157600080fd5b50565b600081519050610a03816109dd565b92915050565b6000610a1482610826565b9050919050565b610a2481610a09565b8114610a2f57600080fd5b50565b600081519050610a4181610a1b565b92915050565b60008060408385031215610a5e57610a5d6104f7565b5b6000610a6c858286016109f4565b9250506020610a7d85828601610a32565b9150509250929050565b600081519050610a96816105cd565b92915050565b600060208284031215610ab257610ab16104f7565b5b6000610ac084828501610a87565b91505092915050565b610ad281610597565b82525050565b610ae18161047b565b82525050565b610af0816104af565b82525050565b600081519050919050565b600082825260208201905092915050565b60005b83811015610b30578082015181840152602081019050610b15565b83811115610b3f576000848401525b50505050565b6000610b5082610af6565b610b5a8185610b01565b9350610b6a818560208601610b12565b610b7381610506565b840191505092915050565b600060a083016000830151610b966000860182610ac9565b506020830151610ba96020860182610ad8565b506040830151610bbc6040860182610ad8565b506060830151610bcf6060860182610ae7565b5060808301518482036080860152610be78282610b45565b9150508091505092915050565b60006020820190508181036000830152610c0e8184610b7e565b90509291505056fea264697066735822122069e5c6b2a78ebae29d3aa4e8a89147c35e1424faceee8920939133d456a8565864736f6c634300080d0033",
  "immutableReferences": {},
  "source": "// SPDX-License-Identifier: MIT\npragma solidity >= 0.8.13;\n\nimport \"./Ticket.sol\";\nimport \"./IEndPoint.sol\";\nimport \"./ITicketGranter.sol\";\n\nimport \"./EndPointBase.sol\";\nimport \"./IEmployeeManagment.sol\";\n\ncontract NetEndPoint is IEndPoint, ITicketGranter, EndPointCertData {\n\n    IEmployeeManagment managment;\n\n    constructor(bytes32 _endpoint_id, IEmployeeManagment _managment, uint64 _validity_length) \n        EndPointBase(_endpoint_id) EndPointCertData(_validity_length) {\n        managment = _managment;\n    }\n    \n    function CreateTicket(IEndPoint endpoint, string calldata data) external override returns(bool) {\n        require(this == endpoint, \"Incorrect endpoint\");\n\n        (bool active, IEmployee e) = managment.get_employee_address(msg.sender);\n        // require(active, \"Employee not active\");\n        if (!active) {\n            return false;\n        }\n\n        Ticket memory ticket = Ticket({\n             timestamp: block.timestamp,\n             endpoint_id : endpoint.endpoint_id(),\n             employee_id: e.employee_id(),\n\n             validity_length: validity_length,\n             data: data\n        });\n\n        bool valid = validate_ticket(ticket);\n        if (!valid) {\n            return false;\n        }\n        \n        emit TicketIssued(ticket);\n        return true;\n    }\n}",
  "sourcePath": "/Users/mi/Dropbox (Technion Dropbox)/main/courses/M.Sc. Technion Courses/236332:3 - IoT -  Technologies and Implementations & Project in IoT/Project/contracts/contracts/NetEndPoint.sol",
  "compiler": {
    "name": "solc",
    "version": "0.8.13+commit.abaa5c0e.Emscripten.clang"
  },
  "schemaVersion": "3.4.9",
  "updatedAt": "2022-11-13T18:39:07.255Z",
  "networkType": "ethereum",
  "devdoc": {
    "kind": "dev",
    "methods": {},
    "version": 1
  },
  "userdoc": {
    "kind": "user",
    "methods": {},
    "version": 1
  }
}